:100000000C9434000C94E9010C9446000C944600C6
:100010000C9446000C9446000C9446000C94460048
:100020000C9446000C9446000C9446000C94460038
:100030000C9446000C9446000C9446000C94460028
:100040000C9446000C9446000C942A010C94580120
:100050000C9446000C9446000C9446000C94460008
:100060000C9446000C94460011241FBECFEFD8E03C
:10007000DEBFCDBF21E0A0E0B1E001C01D92A934F8
:10008000B207E1F70E9486020C94E0020C94000093
:10009000299A85E08A95F1F7000029980895CF9371
:1000A000C82F662311F0289A01C02898549A559AAF
:1000B000569A579A5F985E985D985C98C7FD5F9ACC
:1000C000C6FD5E9AC5FD5D9AC4FD5C9A0E9448001B
:1000D0005F985E985D985C98C3FD5F9AC2FD5E9ADA
:1000E000C1FD5D9AC0FD5C9A0E9448005C9A5D9AD1
:1000F0005E9A5F9A8FE39FE10197F1F700C00000DD
:10010000CF91089528985D9A549855985698579885
:10011000299A85E08A95F1F700004C9B02C080E1A6
:1001200001C080E04D9980624E9980644F9980684B
:10013000299895E09A95F1F70000299A95E09A950B
:10014000F1F700004C9981604D9982604E9984606E
:100150004F9988602998089560E00C944F0061E001
:100160000C944F00611102C0805801C080540C945F
:10017000AC000E94820087FDFCCF85E18A95F1F7F3
:1001800000000E94820090E0089581E00C94AC0091
:1001900082E00C94AC0061E00C944F00CF93DF93AD
:1001A000EC018991882319F00E94CB00FACFDF91EE
:1001B000CF910895CF93DF93FC018491EF012196B5
:1001C000882321F00E94CB00FE01F7CFDF91CF9171
:1001D0000895CF93C82F209A559A219A549A559AE8
:1001E000569A579A8FEF99EF0197F1F700C00000E8
:1001F0005D9A5C9A0E9448008FE19EE40197F1F7B6
:1002000000C000000E9448008FEF90E00197F1F7D6
:1002100000C000000E9448008FEF90E00197F1F7C6
:1002200000C000005C980E9448008FEF90E00197AA
:10023000F1F700C0000088E20E94AC0088E00E9454
:10024000AC000E94C50086E00E94AC008C2FCF91CC
:100250000C94AC001F920F920FB60F9211242F93A3
:100260008F939F93EF93FF938091C0009091C6006E
:100270008C71E0910201EF5FEF7120910101E217B3
:1002800039F0E0930201F0E0EB5FFE4F908301C094
:1002900082E090910001892B80930001FF91EF9102
:1002A0009F918F912F910F900FBE0F901F901895D7
:1002B0001F920F920FB60F9211248F939F93EF937B
:1002C000FF939091040180910301981769F0E091E8
:1002D0000301EF5FEF71E0930301F0E0EB5DFE4F90
:1002E00080818093C60005C08091C1008F7D80937E
:1002F000C100FF91EF919F918F910F900FBE0F90D2
:100300001F9018951092040110920301109202019F
:100310001092010197FF03C022E02093C000907863
:100320009093C5008093C40088E98093C10086E063
:100330008093C20008959091020180910101981765
:10034000A9F0909101019F5F9F71E92FF0E0EB5FB1
:10035000FE4F2081809100019093010110920001D5
:1003600090E0982F8827820F911D089580E091E0FA
:100370000895909104019F5F9F712091030192174E
:10038000E1F3E92FF0E0EB5DFE4F808390930401F1
:100390008091C10080628093C1000895CF93DF9364
:1003A000EC018991882319F00E94B901FACFDF91FD
:1003B000CF910895CF93DF93FC018491EF012196B3
:1003C000882321F00E94B901FE01F7CFDF91CF9180
:1003D00008951F920F920FB60F9211248F939F933F
:1003E0008091450190914601019791F4109281000E
:1003F00080918400909185009093480180934701FB
:1004000010928500109284001092460110924501CE
:100410008091450190914601892B59F4809181008A
:1004200085608093810081E090E090934601809305
:1004300045019F918F910F900FBE0F901F901895BF
:10044000219A229A229A239A249A559A0895299AAF
:100450002A9808952C9A5D9808950E9427020C947A
:100460002A0229982A9A08952C985D9A0895299A23
:100470002A9A2C9A5D9A08950E9431020C943402B3
:100480000E9431020C942A020E9437022FEF89E663
:1004900098E1215080409040E1F700C000000E94A8
:1004A0003C022FEF87EB98E8215080409040E1F725
:1004B00000C000000E9437022FEF89E698E121502A
:1004C00080409040E1F700C000000E9440022FEF02
:1004D00089EF90E0215080409040E1F700C000009B
:1004E00008950F931F9387FB00F985FB10F90127EF
:1004F00084FB10F9012783FB10F901271FEF012767
:10050000880F00FB80F91F910F9108950E9420022F
:100510002B9A289A509A5298809169008D6F8093F7
:100520006900E89A7894589A20E52A95F1F7589846
:1005300080914701909148014997B4F50E94370294
:100540008FEF95EA2EE0815090402040E1F700C007
:1005500000000E943C028FEF99E628E18150904014
:100560002040E1F700C000000E9437028FEF95EABB
:100570002EE0815090402040E1F700C000000E9432
:1005800040028FEF9DE222E2815090402040E1F74F
:1005900000C000000E9437028FEF95EA2EE08150E4
:1005A00090402040E1F709C00E942D028FEF93ECAC
:1005B00029E0815090402040E1F700C00000B3CF17
:0405C000F894FFCFDD
:00000001FF
